{
  "contractName": "MagicSquare",
  "abi": [
    {
      "inputs": [
        {
          "internalType": "uint256",
          "name": "_n",
          "type": "uint256"
        }
      ],
      "name": "generateMagicSquare",
      "outputs": [],
      "stateMutability": "nonpayable",
      "type": "function"
    },
    {
      "inputs": [],
      "name": "getSquare",
      "outputs": [
        {
          "components": [
            {
              "internalType": "uint256[][]",
              "name": "rows",
              "type": "uint256[][]"
            },
            {
              "internalType": "uint256",
              "name": "n",
              "type": "uint256"
            }
          ],
          "internalType": "struct SquareLib.MagicSquare",
          "name": "",
          "type": "tuple"
        }
      ],
      "stateMutability": "view",
      "type": "function",
      "constant": true
    },
    {
      "inputs": [
        {
          "components": [
            {
              "internalType": "uint256[][]",
              "name": "rows",
              "type": "uint256[][]"
            },
            {
              "internalType": "uint256",
              "name": "n",
              "type": "uint256"
            }
          ],
          "internalType": "struct SquareLib.MagicSquare",
          "name": "square",
          "type": "tuple"
        }
      ],
      "name": "save",
      "outputs": [],
      "stateMutability": "nonpayable",
      "type": "function"
    }
  ],
  "bytecode": "0x608060405234801561001057600080fd5b50610ca7806100206000396000f3fe608060405234801561001057600080fd5b50600436106100415760003560e01c80638b213ffc146100465780638dbbe62514610062578063f117a19314610080575b600080fd5b610060600480360381019061005b919061091f565b61009c565b005b61006a610224565b6040516100779190610b24565b60405180910390f35b61009a600480360381019061009591906109a1565b6102e7565b005b8060200151600060010181905550806020015167ffffffffffffffff811180156100c557600080fd5b506040519080825280602002602001820160405280156100f957816020015b60608152602001906001900390816100e45790505b50600080019080519060200190610111929190610516565b5060005b816020015181101561022057816020015167ffffffffffffffff8111801561013c57600080fd5b5060405190808252806020026020018201604052801561016b5781602001602082028036833780820191505090505b5060008001828154811061017b57fe5b906000526020600020019080519060200190610198929190610576565b5060005b826020015181101561021257826000015182815181106101b857fe5b602002602001015181815181106101cb57fe5b60200260200101516000800183815481106101e257fe5b9060005260206000200182815481106101f757fe5b9060005260206000200181905550808060010191505061019c565b508080600101915050610115565b5050565b61022c6105c3565b600060405180604001604052908160008201805480602002602001604051908101604052809291908181526020016000905b828210156102d0578382906000526020600020018054806020026020016040519081016040528092919081815260200182805480156102bc57602002820191906000526020600020905b8154815260200190600101908083116102a8575b50505050508152602001906001019061025e565b505050508152602001600182015481525050905090565b6102ef6105c3565b73__SquareLib_____________________________63fe4b84df836040518263ffffffff1660e01b81526004016103269190610b46565b60006040518083038186803b15801561033e57600080fd5b505af4158015610352573d6000803e3d6000fd5b505050506040513d6000823e3d601f19601f8201168201806040525081019061037b9190610960565b90506000806002848161038a57fe5b0490506000600190505b84850281116103cd576103b48383838761043f909392919063ffffffff16565b8093508194508295505050508080600101915050610394565b503073ffffffffffffffffffffffffffffffffffffffff16638b213ffc846040518263ffffffff1660e01b81526004016104079190610b24565b600060405180830381600087803b15801561042157600080fd5b505af1158015610435573d6000803e3d6000fd5b5050505050505050565b6000806000808760000151878151811061045557fe5b6020026020010151868151811061046857fe5b6020026020010151146104ac578660200151600287018161048557fe5b0692508660200151600186896020015101038161049e57fe5b06915060018403905061050c565b83876000015187815181106104bd57fe5b602002602001015186815181106104d057fe5b602002602001018181525050866020015160018789602001510103816104f257fe5b0692508660200151600186018161050557fe5b0691508390505b9450945094915050565b828054828255906000526020600020908101928215610565579160200282015b82811115610564578251829080519060200190610554929190610576565b5091602001919060010190610536565b5b50905061057291906105dd565b5090565b8280548282559060005260206000209081019282156105b2579160200282015b828111156105b1578251825591602001919060010190610596565b5b5090506105bf9190610601565b5090565b604051806040016040528060608152602001600081525090565b5b808211156105fd57600081816105f4919061061e565b506001016105de565b5090565b5b8082111561061a576000816000905550600101610602565b5090565b508054600082559060005260206000209081019061063c9190610601565b50565b600082601f83011261065057600080fd5b813561066361065e82610b8e565b610b61565b9150818183526020840193506020810190508360005b838110156106a9578135860161068f8882610727565b845260208401935060208301925050600181019050610679565b5050505092915050565b600082601f8301126106c457600080fd5b81516106d76106d282610b8e565b610b61565b9150818183526020840193506020810190508360005b8381101561071d578151860161070388826107aa565b8452602084019350602083019250506001810190506106ed565b5050505092915050565b600082601f83011261073857600080fd5b813561074b61074682610bb6565b610b61565b9150818183526020840193506020810190508385602084028201111561077057600080fd5b60005b838110156107a0578161078688826108f5565b845260208401935060208301925050600181019050610773565b5050505092915050565b600082601f8301126107bb57600080fd5b81516107ce6107c982610bb6565b610b61565b915081818352602084019350602081019050838560208402820111156107f357600080fd5b60005b838110156108235781610809888261090a565b8452602084019350602083019250506001810190506107f6565b5050505092915050565b60006040828403121561083f57600080fd5b6108496040610b61565b9050600082013567ffffffffffffffff81111561086557600080fd5b6108718482850161063f565b6000830152506020610885848285016108f5565b60208301525092915050565b6000604082840312156108a357600080fd5b6108ad6040610b61565b9050600082015167ffffffffffffffff8111156108c957600080fd5b6108d5848285016106b3565b60008301525060206108e98482850161090a565b60208301525092915050565b60008135905061090481610c5a565b92915050565b60008151905061091981610c5a565b92915050565b60006020828403121561093157600080fd5b600082013567ffffffffffffffff81111561094b57600080fd5b6109578482850161082d565b91505092915050565b60006020828403121561097257600080fd5b600082015167ffffffffffffffff81111561098c57600080fd5b61099884828501610891565b91505092915050565b6000602082840312156109b357600080fd5b60006109c1848285016108f5565b91505092915050565b60006109d68383610a6b565b905092915050565b60006109ea8383610b06565b60208301905092915050565b6000610a0182610bfe565b610a0b8185610c2e565b935083602082028501610a1d85610bde565b8060005b85811015610a595784840389528151610a3a85826109ca565b9450610a4583610c14565b925060208a01995050600181019050610a21565b50829750879550505050505092915050565b6000610a7682610c09565b610a808185610c3f565b9350610a8b83610bee565b8060005b83811015610abc578151610aa388826109de565b9750610aae83610c21565b925050600181019050610a8f565b5085935050505092915050565b60006040830160008301518482036000860152610ae682826109f6565b9150506020830151610afb6020860182610b06565b508091505092915050565b610b0f81610c50565b82525050565b610b1e81610c50565b82525050565b60006020820190508181036000830152610b3e8184610ac9565b905092915050565b6000602082019050610b5b6000830184610b15565b92915050565b6000604051905081810181811067ffffffffffffffff82111715610b8457600080fd5b8060405250919050565b600067ffffffffffffffff821115610ba557600080fd5b602082029050602081019050919050565b600067ffffffffffffffff821115610bcd57600080fd5b602082029050602081019050919050565b6000819050602082019050919050565b6000819050602082019050919050565b600081519050919050565b600081519050919050565b6000602082019050919050565b6000602082019050919050565b600082825260208201905092915050565b600082825260208201905092915050565b6000819050919050565b610c6381610c50565b8114610c6e57600080fd5b5056fea26469706673582212208d4c716235682705f5d8faf260a6601871f8c3a7da0b447548a93cd44b8806d264736f6c63430007010033",
  "immutableReferences": {},
  "source": "// SPDX-License-Identifier: MIT\n\npragma solidity ^0.7.1;\npragma experimental ABIEncoderV2;\n\nimport \"./SquareLib.sol\";\n\ncontract MagicSquare {\n    \n    using SquareLib for SquareLib.MagicSquare;\n\n    SquareLib.MagicSquare storedSquare;\n\n    function generateMagicSquare(uint _n) public {\n        SquareLib.MagicSquare memory square;\n        square = SquareLib.initialize(_n);\n\n        uint _x = 0;\n        uint _y = _n / 2;\n        for(uint _i = 1 ; _i <= _n * _n ; _i++) {\n         (_x, _y, _i) = square.step(_x , _y , _i );\n        }\n        this.save(square);\n    }\n\n    function getSquare() public view returns (SquareLib.MagicSquare memory) {\n        return storedSquare;\n    }\n\n    function save(SquareLib.MagicSquare memory square) public {\n        storedSquare.n = square.n;\n        storedSquare.rows = new uint[][](square.n);\n        for (uint _i = 0 ; _i < square.n ; _i++) {\n            storedSquare.rows[_i] = new uint[](square.n);\n            for(uint _j = 0 ; _j < square.n ; _j++) {\n                storedSquare.rows[_i][_j] = square.rows[_i][_j];\n            }\n        }\n    }\n}",
  "sourcePath": "/Users/dhruvin/gbc/bcdv-1010/solidity-magic-square/contracts/MagicSquare.sol",
  "compiler": {
    "name": "solc",
    "version": "0.7.1+commit.f4a555be.Emscripten.clang"
  },
  "schemaVersion": "3.3.3",
  "updatedAt": "2021-01-27T03:21:14.462Z",
  "networkType": "ethereum",
  "devdoc": {
    "kind": "dev",
    "methods": {},
    "version": 1
  },
  "userdoc": {
    "kind": "user",
    "methods": {},
    "version": 1
  }
}