{
  "contractName": "ReceiverPays",
  "abi": [
    {
      "inputs": [],
      "payable": true,
      "stateMutability": "payable",
      "type": "constructor"
    },
    {
      "constant": true,
      "inputs": [],
      "name": "owner",
      "outputs": [
        {
          "internalType": "address",
          "name": "",
          "type": "address"
        }
      ],
      "payable": false,
      "stateMutability": "view",
      "type": "function"
    },
    {
      "constant": false,
      "inputs": [
        {
          "internalType": "uint256",
          "name": "amount",
          "type": "uint256"
        },
        {
          "internalType": "uint256",
          "name": "nonce",
          "type": "uint256"
        },
        {
          "internalType": "bytes",
          "name": "sig",
          "type": "bytes"
        }
      ],
      "name": "claimPayment",
      "outputs": [],
      "payable": false,
      "stateMutability": "nonpayable",
      "type": "function"
    },
    {
      "constant": false,
      "inputs": [],
      "name": "kill",
      "outputs": [],
      "payable": false,
      "stateMutability": "nonpayable",
      "type": "function"
    }
  ],
  "bytecode": "0x6080604052336000806101000a81548173ffffffffffffffffffffffffffffffffffffffff021916908373ffffffffffffffffffffffffffffffffffffffff160217905550610660806100536000396000f3fe608060405234801561001057600080fd5b50600436106100415760003560e01c806341c0e1b5146100465780638da5cb5b14610050578063a90ae8871461009a575b600080fd5b61004e610169565b005b610058610227565b604051808273ffffffffffffffffffffffffffffffffffffffff1673ffffffffffffffffffffffffffffffffffffffff16815260200191505060405180910390f35b610167600480360360608110156100b057600080fd5b810190808035906020019092919080359060200190929190803590602001906401000000008111156100e157600080fd5b8201836020820111156100f357600080fd5b8035906020019184600183028401116401000000008311171561011557600080fd5b91908080601f016020809104026020016040519081016040528093929190818152602001838380828437600081840152601f19601f82011690508083019250505050505050919291929050505061024c565b005b6000809054906101000a900473ffffffffffffffffffffffffffffffffffffffff1673ffffffffffffffffffffffffffffffffffffffff163373ffffffffffffffffffffffffffffffffffffffff161461020e576040517f08c379a00000000000000000000000000000000000000000000000000000000081526004018080602001828103825260258152602001806105e16025913960400191505060405180910390fd5b3373ffffffffffffffffffffffffffffffffffffffff16ff5b6000809054906101000a900473ffffffffffffffffffffffffffffffffffffffff1681565b6001600083815260200190815260200160002060009054906101000a900460ff16156102e0576040517f08c379a00000000000000000000000000000000000000000000000000000000081526004018080602001828103825260208152602001807f5265636569766572506179733a206e6f6e636520616c7265616479207573656481525060200191505060405180910390fd5b600180600084815260200190815260200160002060006101000a81548160ff021916908315150217905550600033848430604051602001808573ffffffffffffffffffffffffffffffffffffffff1673ffffffffffffffffffffffffffffffffffffffff1660601b81526014018481526020018381526020018273ffffffffffffffffffffffffffffffffffffffff1673ffffffffffffffffffffffffffffffffffffffff1660601b81526014019450505050506040516020818303038152906040528051906020012090506000809054906101000a900473ffffffffffffffffffffffffffffffffffffffff1673ffffffffffffffffffffffffffffffffffffffff166103ee82846104c4565b73ffffffffffffffffffffffffffffffffffffffff1614610477576040517f08c379a000000000000000000000000000000000000000000000000000000000815260040180806020018281038252601a8152602001807f5265636569766572506179733a206e6f7420766572696669656400000000000081525060200191505060405180910390fd5b3373ffffffffffffffffffffffffffffffffffffffff166108fc859081150290604051600060405180830381858888f193505050501580156104bd573d6000803e3d6000fd5b5050505050565b6000806000806104d385610551565b80935081945082955050505060018684848460405160008152602001604052604051808581526020018460ff1660ff1681526020018381526020018281526020019450505050506020604051602081039080840390855afa15801561053c573d6000803e3d6000fd5b50505060206040510351935050505092915050565b600080600060418451146105b0576040517f08c379a00000000000000000000000000000000000000000000000000000000081526004018080602001828103825260268152602001806106066026913960400191505060405180910390fd5b60008060006020870151925060408701519150606087015160001a9050808383955095509550505050919390925056fe5265636569766572506179733a206f776e65722063616e20676574207468652066756e64735265636569766572506179733a207369676e6174757265206c656e677468206d69736d616368a265627a7a72315820a57c7eb071b3b88df3e6f38cdcab1943b25aee90fe3c7f43db3c05b4ff25112f64736f6c63430005100032",
  "source": "// SPDX-License_identifier: MIT\n\npragma solidity >0.4.0 <0.7.0;\n\ncontract ReceiverPays {\n    address public owner = msg.sender;\n\n    mapping(uint256 => bool) usedNonces;\n\n    // Funds are sent at deployment time.\n    constructor() public payable { }\n\n\n    function claimPayment(uint256 amount, uint256 nonce, bytes memory sig) public {\n        require(!usedNonces[nonce],\"ReceiverPays: nonce already used\");\n        usedNonces[nonce] = true;\n\n        // This recreates the message that was signed on the client.\n        bytes32 message = keccak256(abi.encodePacked(msg.sender, amount, nonce, this));\n\n        require(recoverSigner(message, sig) == owner,\"ReceiverPays: not verified\");\n\n        msg.sender.transfer(amount);\n    }\n\n    // Destroy contract and reclaim leftover funds.\n    function kill() public {\n        require(msg.sender == owner, \"ReceiverPays: owner can get the funds\");\n        selfdestruct(msg.sender);\n    }\n\n\n    // Signature methods\n\n    function splitSignature(bytes memory sig)\n        internal\n        pure\n        returns (uint8, bytes32, bytes32)\n    {\n        require(sig.length == 65,\"ReceiverPays: signature length mismach\");\n\n        bytes32 r;\n        bytes32 s;\n        uint8 v;\n\n        /* solium-disable-next-line security/no-inline-assembly */\n        assembly {\n            // first 32 bytes, after the length prefix\n            r := mload(add(sig, 32))\n            // second 32 bytes\n            s := mload(add(sig, 64))\n            // final byte (first byte of the next 32 bytes)\n            v := byte(0, mload(add(sig, 96)))\n        }\n\n        return (v, r, s);\n    }\n\n    function recoverSigner(bytes32 message, bytes memory sig)\n        internal\n        pure\n        returns (address)\n    {\n        uint8 v;\n        bytes32 r;\n        bytes32 s;\n\n        (v, r, s) = splitSignature(sig);\n\n        return ecrecover(message, v, r, s);\n    }\n\n    // Builds a prefixed hash to mimic the behavior of eth_sign.\n    function prefixed(bytes32 hash) internal pure returns (bytes32) {\n        return keccak256(abi.encodePacked(\"\\x19Ethereum Signed Message:\\n32\", hash));\n    }\n}",
  "sourcePath": "/Users/dhruvinparikh/gbc_tut/Advanced-Smart-Contracts/Advanced-Smart-Contracts/notes/intro-state-channel/demo/verify-sign/contracts/ReceiverPays.sol",
  "compiler": {
    "name": "solc",
    "version": "0.5.16+commit.9c3226ce.Emscripten.clang"
  },
  "schemaVersion": "3.2.0",
  "updatedAt": "2020-07-18T03:00:55.752Z",
  "networkType": "ethereum",
  "devdoc": {
    "methods": {}
  },
  "userdoc": {
    "methods": {}
  }
}